{
  "_format": "hh-sol-artifact-1",
  "contractName": "EscrowFactory",
  "sourceName": "contracts/EscrowFactory.sol",
  "abi": [
    {
      "anonymous": false,
      "inputs": [
        {
          "indexed": false,
          "internalType": "address",
          "name": "escrowAddress",
          "type": "address"
        },
        {
          "indexed": false,
          "internalType": "address",
          "name": "seller",
          "type": "address"
        },
        {
          "indexed": false,
          "internalType": "address",
          "name": "buyer",
          "type": "address"
        },
        {
          "indexed": false,
          "internalType": "uint256",
          "name": "value",
          "type": "uint256"
        }
      ],
      "name": "EscrowCreated",
      "type": "event"
    },
    {
      "inputs": [
        {
          "internalType": "address payable",
          "name": "_seller",
          "type": "address"
        },
        {
          "internalType": "address payable",
          "name": "_buyer",
          "type": "address"
        },
        {
          "internalType": "uint256",
          "name": "_value",
          "type": "uint256"
        }
      ],
      "name": "createEscrow",
      "outputs": [],
      "stateMutability": "nonpayable",
      "type": "function"
    },
    {
      "inputs": [
        {
          "internalType": "uint256",
          "name": "",
          "type": "uint256"
        }
      ],
      "name": "escrows",
      "outputs": [
        {
          "internalType": "contract Escrow",
          "name": "",
          "type": "address"
        }
      ],
      "stateMutability": "view",
      "type": "function"
    },
    {
      "inputs": [],
      "name": "getEscrows",
      "outputs": [
        {
          "internalType": "contract Escrow[]",
          "name": "",
          "type": "address[]"
        }
      ],
      "stateMutability": "view",
      "type": "function"
    },
    {
      "inputs": [
        {
          "internalType": "address",
          "name": "_user",
          "type": "address"
        }
      ],
      "name": "getUserEscrows",
      "outputs": [
        {
          "internalType": "address[]",
          "name": "",
          "type": "address[]"
        }
      ],
      "stateMutability": "view",
      "type": "function"
    },
    {
      "inputs": [
        {
          "internalType": "address",
          "name": "",
          "type": "address"
        },
        {
          "internalType": "uint256",
          "name": "",
          "type": "uint256"
        }
      ],
      "name": "userEscrows",
      "outputs": [
        {
          "internalType": "contract Escrow",
          "name": "",
          "type": "address"
        }
      ],
      "stateMutability": "view",
      "type": "function"
    }
  ],
  "bytecode": "0x6080604052348015600f57600080fd5b506134688061001f6000396000f3fe608060405234801561001057600080fd5b50600436106100575760003560e01c8063012f52ee1461005c5780635ccea85e1461008c5780636afcb6da146100bc5780637f944dd0146100da578063c36176501461010a575b600080fd5b6100766004803603810190610071919061062d565b610126565b60405161008391906106d9565b60405180910390f35b6100a660048036038101906100a19190610732565b610165565b6040516100b3919061081d565b60405180910390f35b6100c46102e7565b6040516100d191906108ec565b60405180910390f35b6100f460048036038101906100ef919061090e565b610375565b60405161010191906106d9565b60405180910390f35b610124600480360381019061011f919061098c565b6103c3565b005b6000818154811061013657600080fd5b906000526020600020016000915054906101000a900473ffffffffffffffffffffffffffffffffffffffff1681565b60606000600160008473ffffffffffffffffffffffffffffffffffffffff1673ffffffffffffffffffffffffffffffffffffffff16815260200190815260200160002080549050905060008167ffffffffffffffff8111156101ca576101c96109df565b5b6040519080825280602002602001820160405280156101f85781602001602082028036833780820191505090505b50905060005b828110156102dc57600160008673ffffffffffffffffffffffffffffffffffffffff1673ffffffffffffffffffffffffffffffffffffffff168152602001908152602001600020818154811061025757610256610a0e565b5b9060005260206000200160009054906101000a900473ffffffffffffffffffffffffffffffffffffffff1682828151811061029557610294610a0e565b5b602002602001019073ffffffffffffffffffffffffffffffffffffffff16908173ffffffffffffffffffffffffffffffffffffffff168152505080806001019150506101fe565b508092505050919050565b6060600080548060200260200160405190810160405280929190818152602001828054801561036b57602002820191906000526020600020905b8160009054906101000a900473ffffffffffffffffffffffffffffffffffffffff1673ffffffffffffffffffffffffffffffffffffffff1681526020019060010190808311610321575b5050505050905090565b6001602052816000526040600020818154811061039157600080fd5b906000526020600020016000915091509054906101000a900473ffffffffffffffffffffffffffffffffffffffff1681565b60008383836040516103d4906105e5565b6103e093929190610a5b565b604051809103906000f0801580156103fc573d6000803e3d6000fd5b5090506000819080600181540180825580915050600190039060005260206000200160009091909190916101000a81548173ffffffffffffffffffffffffffffffffffffffff021916908373ffffffffffffffffffffffffffffffffffffffff160217905550600160008473ffffffffffffffffffffffffffffffffffffffff1673ffffffffffffffffffffffffffffffffffffffff168152602001908152602001600020819080600181540180825580915050600190039060005260206000200160009091909190916101000a81548173ffffffffffffffffffffffffffffffffffffffff021916908373ffffffffffffffffffffffffffffffffffffffff160217905550600160008573ffffffffffffffffffffffffffffffffffffffff1673ffffffffffffffffffffffffffffffffffffffff168152602001908152602001600020819080600181540180825580915050600190039060005260206000200160009091909190916101000a81548173ffffffffffffffffffffffffffffffffffffffff021916908373ffffffffffffffffffffffffffffffffffffffff1602179055507fd99c67ae0185d6b0a36717d67d259f252914f7955744e4d81a91685ff480896d818585856040516105d79493929190610ac2565b60405180910390a150505050565b61292b80610b0883390190565b600080fd5b6000819050919050565b61060a816105f7565b811461061557600080fd5b50565b60008135905061062781610601565b92915050565b600060208284031215610643576106426105f2565b5b600061065184828501610618565b91505092915050565b600073ffffffffffffffffffffffffffffffffffffffff82169050919050565b6000819050919050565b600061069f61069a6106958461065a565b61067a565b61065a565b9050919050565b60006106b182610684565b9050919050565b60006106c3826106a6565b9050919050565b6106d3816106b8565b82525050565b60006020820190506106ee60008301846106ca565b92915050565b60006106ff8261065a565b9050919050565b61070f816106f4565b811461071a57600080fd5b50565b60008135905061072c81610706565b92915050565b600060208284031215610748576107476105f2565b5b60006107568482850161071d565b91505092915050565b600081519050919050565b600082825260208201905092915050565b6000819050602082019050919050565b610794816106f4565b82525050565b60006107a6838361078b565b60208301905092915050565b6000602082019050919050565b60006107ca8261075f565b6107d4818561076a565b93506107df8361077b565b8060005b838110156108105781516107f7888261079a565b9750610802836107b2565b9250506001810190506107e3565b5085935050505092915050565b6000602082019050818103600083015261083781846107bf565b905092915050565b600081519050919050565b6000819050602082019050919050565b610863816106b8565b82525050565b6000610875838361085a565b60208301905092915050565b6000602082019050919050565b60006108998261083f565b6108a3818561076a565b93506108ae8361084a565b8060005b838110156108df5781516108c68882610869565b97506108d183610881565b9250506001810190506108b2565b5085935050505092915050565b60006020820190508181036000830152610906818461088e565b905092915050565b60008060408385031215610925576109246105f2565b5b60006109338582860161071d565b925050602061094485828601610618565b9150509250929050565b60006109598261065a565b9050919050565b6109698161094e565b811461097457600080fd5b50565b60008135905061098681610960565b92915050565b6000806000606084860312156109a5576109a46105f2565b5b60006109b386828701610977565b93505060206109c486828701610977565b92505060406109d586828701610618565b9150509250925092565b7f4e487b7100000000000000000000000000000000000000000000000000000000600052604160045260246000fd5b7f4e487b7100000000000000000000000000000000000000000000000000000000600052603260045260246000fd5b610a468161094e565b82525050565b610a55816105f7565b82525050565b6000606082019050610a706000830186610a3d565b610a7d6020830185610a3d565b610a8a6040830184610a4c565b949350505050565b610a9b816106f4565b82525050565b6000610aac826106a6565b9050919050565b610abc81610aa1565b82525050565b6000608082019050610ad76000830187610a92565b610ae46020830186610ab3565b610af16040830185610ab3565b610afe6060830184610a4c565b9594505050505056fe608060405234801561001057600080fd5b5060405161292b38038061292b833981810160405281019061003291906102dd565b600073ffffffffffffffffffffffffffffffffffffffff168373ffffffffffffffffffffffffffffffffffffffff16036100a1576040517f08c379a0000000000000000000000000000000000000000000000000000000008152600401610098906103b3565b60405180910390fd5b600073ffffffffffffffffffffffffffffffffffffffff168273ffffffffffffffffffffffffffffffffffffffff1603610110576040517f08c379a000000000000000000000000000000000000000000000000000000000815260040161010790610445565b60405180910390fd5b60008111610153576040517f08c379a000000000000000000000000000000000000000000000000000000000815260040161014a906104d7565b60405180910390fd5b826000806101000a81548173ffffffffffffffffffffffffffffffffffffffff021916908373ffffffffffffffffffffffffffffffffffffffff16021790555081600160006101000a81548173ffffffffffffffffffffffffffffffffffffffff021916908373ffffffffffffffffffffffffffffffffffffffff160217905550806002819055506000600360006101000a81548160ff02191690836005811115610201576102006104f7565b5b02179055506000600360016101000a81548160ff0219169083151502179055506000600360026101000a81548160ff021916908315150217905550505050610526565b600080fd5b600073ffffffffffffffffffffffffffffffffffffffff82169050919050565b600061027482610249565b9050919050565b61028481610269565b811461028f57600080fd5b50565b6000815190506102a18161027b565b92915050565b6000819050919050565b6102ba816102a7565b81146102c557600080fd5b50565b6000815190506102d7816102b1565b92915050565b6000806000606084860312156102f6576102f5610244565b5b600061030486828701610292565b935050602061031586828701610292565b9250506040610326868287016102c8565b9150509250925092565b600082825260208201905092915050565b7f4c27616472657373652064752076656e64657572206e6520706575742070617360008201527f2065747265206e756c6c652e0000000000000000000000000000000000000000602082015250565b600061039d602c83610330565b91506103a882610341565b604082019050919050565b600060208201905081810360008301526103cc81610390565b9050919050565b7f4c2761647265737365206465206163686574657572206e65207065757420706160008201527f732065747265206e756c6c652e00000000000000000000000000000000000000602082015250565b600061042f602d83610330565b915061043a826103d3565b604082019050919050565b6000602082019050818103600083015261045e81610422565b9050919050565b7f4c612076616c657572206465206c61206d61726368616e64697365206e65207060008201527f657574207061732065747265206e756c6c652e00000000000000000000000000602082015250565b60006104c1603383610330565b91506104cc82610465565b604082019050919050565b600060208201905081810360008301526104f0816104b4565b9050919050565b7f4e487b7100000000000000000000000000000000000000000000000000000000600052602160045260246000fd5b6123f6806105356000396000f3fe60806040526004361061009c5760003560e01c806369d895751161006457806369d8957514610176578063a035847f14610180578063a721df69146101a9578063dbd0e1b6146101d4578063e2c41dbc146101ff578063e4a6e92d146102095761009c565b806310e573b8146100a157806320965255146100cc5780632e49d78b146100f75780634e69d56014610120578063603daf9a1461014b575b600080fd5b3480156100ad57600080fd5b506100b6610220565b6040516100c391906113b2565b60405180910390f35b3480156100d857600080fd5b506100e1610237565b6040516100ee91906113e6565b60405180910390f35b34801561010357600080fd5b5061011e6004803603810190610119919061143a565b610241565b005b34801561012c57600080fd5b506101356105d0565b60405161014291906114de565b60405180910390f35b34801561015757600080fd5b506101606105e7565b60405161016d919061153a565b60405180910390f35b61017e610611565b005b34801561018c57600080fd5b506101a760048036038101906101a291906116c7565b610913565b005b3480156101b557600080fd5b506101be610ea2565b6040516101cb91906113b2565b60405180910390f35b3480156101e057600080fd5b506101e9610eb9565b6040516101f6919061153a565b60405180910390f35b610207610ee2565b005b34801561021557600080fd5b5061021e611147565b005b6000600360029054906101000a900460ff16905090565b6000600254905090565b6004600581111561025557610254611467565b5b600360009054906101000a900460ff16600581111561027757610276611467565b5b036102b7576040517f08c379a00000000000000000000000000000000000000000000000000000000081526004016102ae906117a6565b60405180910390fd5b6005808111156102ca576102c9611467565b5b600360009054906101000a900460ff1660058111156102ec576102eb611467565b5b0361032c576040517f08c379a000000000000000000000000000000000000000000000000000000000815260040161032390611812565b60405180910390fd5b600360029054906101000a900460ff1661037b576040517f08c379a0000000000000000000000000000000000000000000000000000000008152600401610372906118a4565b60405180910390fd5b6000600581111561038f5761038e611467565b5b600360009054906101000a900460ff1660058111156103b1576103b0611467565b5b036104495760008054906101000a900473ffffffffffffffffffffffffffffffffffffffff1673ffffffffffffffffffffffffffffffffffffffff163373ffffffffffffffffffffffffffffffffffffffff1614610444576040517f08c379a000000000000000000000000000000000000000000000000000000000815260040161043b90611936565b60405180910390fd5b6104da565b600160009054906101000a900473ffffffffffffffffffffffffffffffffffffffff1673ffffffffffffffffffffffffffffffffffffffff163373ffffffffffffffffffffffffffffffffffffffff16146104d9576040517f08c379a00000000000000000000000000000000000000000000000000000000081526004016104d0906119c8565b60405180910390fd5b5b6001600360009054906101000a900460ff1660058111156104fe576104fd611467565b5b6105089190611a17565b81600581111561051b5761051a611467565b5b1461055b576040517f08c379a000000000000000000000000000000000000000000000000000000000815260040161055290611a97565b60405180910390fd5b7f84950c1c14f7f37b4e67d58ad2a95ad1e04ad8954e4417799095a4f0e9c74f72600360009054906101000a900460ff168260405161059b929190611ab7565b60405180910390a180600360006101000a81548160ff021916908360058111156105c8576105c7611467565b5b021790555050565b6000600360009054906101000a900460ff16905090565b6000600160009054906101000a900473ffffffffffffffffffffffffffffffffffffffff16905090565b6004600581111561062557610624611467565b5b600360009054906101000a900460ff16600581111561064757610646611467565b5b03610687576040517f08c379a000000000000000000000000000000000000000000000000000000000815260040161067e906117a6565b60405180910390fd5b60058081111561069a57610699611467565b5b600360009054906101000a900460ff1660058111156106bc576106bb611467565b5b036106fc576040517f08c379a00000000000000000000000000000000000000000000000000000000081526004016106f390611812565b60405180910390fd5b60011515600360019054906101000a900460ff16151514610752576040517f08c379a000000000000000000000000000000000000000000000000000000000815260040161074990611b78565b60405180910390fd5b600360029054906101000a900460ff166107a1576040517f08c379a000000000000000000000000000000000000000000000000000000000815260040161079890611c0a565b60405180910390fd5b6000479050600081116107e9576040517f08c379a00000000000000000000000000000000000000000000000000000000081526004016107e090611c9c565b60405180910390fd5b7f221c08a06b07a64803b3787861a3f276212fcccb51c2e6234077a9b8cb13047a60008054906101000a900473ffffffffffffffffffffffffffffffffffffffff168260405161083a929190611d1b565b60405180910390a160008060009054906101000a900473ffffffffffffffffffffffffffffffffffffffff1673ffffffffffffffffffffffffffffffffffffffff168260405161088990611d75565b60006040518083038185875af1925050503d80600081146108c6576040519150601f19603f3d011682016040523d82523d6000602084013e6108cb565b606091505b505090508061090f576040517f08c379a000000000000000000000000000000000000000000000000000000000815260040161090690611dd6565b60405180910390fd5b5050565b6004600581111561092757610926611467565b5b600360009054906101000a900460ff16600581111561094957610948611467565b5b03610989576040517f08c379a0000000000000000000000000000000000000000000000000000000008152600401610980906117a6565b60405180910390fd5b60058081111561099c5761099b611467565b5b600360009054906101000a900460ff1660058111156109be576109bd611467565b5b036109fe576040517f08c379a00000000000000000000000000000000000000000000000000000000081526004016109f590611812565b60405180910390fd5b600073ffffffffffffffffffffffffffffffffffffffff168273ffffffffffffffffffffffffffffffffffffffff1603610a6d576040517f08c379a0000000000000000000000000000000000000000000000000000000008152600401610a6490611e8e565b60405180910390fd5b6000815111610ab1576040517f08c379a0000000000000000000000000000000000000000000000000000000008152600401610aa890611f20565b60405180910390fd5b60001515600360019054906101000a900460ff16151514610b07576040517f08c379a0000000000000000000000000000000000000000000000000000000008152600401610afe90611fd8565b60405180910390fd5b600047905060008054906101000a900473ffffffffffffffffffffffffffffffffffffffff1673ffffffffffffffffffffffffffffffffffffffff168373ffffffffffffffffffffffffffffffffffffffff1603610c2857600160009054906101000a900473ffffffffffffffffffffffffffffffffffffffff1673ffffffffffffffffffffffffffffffffffffffff166108fc829081150290604051600060405180830381858888f19350505050158015610bc7573d6000803e3d6000fd5b507f221c08a06b07a64803b3787861a3f276212fcccb51c2e6234077a9b8cb13047a600160009054906101000a900473ffffffffffffffffffffffffffffffffffffffff1682604051610c1b929190611d1b565b60405180910390a1610e35565b6000806005811115610c3d57610c3c611467565b5b600360009054906101000a900460ff166005811115610c5f57610c5e611467565b5b14610c82576064601e83610c739190611ff8565b610c7d9190612069565b610c9c565b6064600f83610c919190611ff8565b610c9b9190612069565b5b905060008183610cac919061209a565b905060008054906101000a900473ffffffffffffffffffffffffffffffffffffffff1673ffffffffffffffffffffffffffffffffffffffff166108fc839081150290604051600060405180830381858888f19350505050158015610d14573d6000803e3d6000fd5b50600160009054906101000a900473ffffffffffffffffffffffffffffffffffffffff1673ffffffffffffffffffffffffffffffffffffffff166108fc829081150290604051600060405180830381858888f19350505050158015610d7d573d6000803e3d6000fd5b507f221c08a06b07a64803b3787861a3f276212fcccb51c2e6234077a9b8cb13047a60008054906101000a900473ffffffffffffffffffffffffffffffffffffffff1683604051610dcf929190611d1b565b60405180910390a17f221c08a06b07a64803b3787861a3f276212fcccb51c2e6234077a9b8cb13047a600160009054906101000a900473ffffffffffffffffffffffffffffffffffffffff1682604051610e2a929190611d1b565b60405180910390a150505b6005600360006101000a81548160ff02191690836005811115610e5b57610e5a611467565b5b02179055507f092181dc8f02a9f20b9f59026b968a1a11af9b9fd86084e7cbc5727ae095ca128383600254604051610e959392919061213c565b60405180910390a1505050565b6000600360019054906101000a900460ff16905090565b60008060009054906101000a900473ffffffffffffffffffffffffffffffffffffffff16905090565b600160009054906101000a900473ffffffffffffffffffffffffffffffffffffffff1673ffffffffffffffffffffffffffffffffffffffff163373ffffffffffffffffffffffffffffffffffffffff1614610f72576040517f08c379a0000000000000000000000000000000000000000000000000000000008152600401610f69906121ec565b60405180910390fd5b60046005811115610f8657610f85611467565b5b600360009054906101000a900460ff166005811115610fa857610fa7611467565b5b03610fe8576040517f08c379a0000000000000000000000000000000000000000000000000000000008152600401610fdf906117a6565b60405180910390fd5b600580811115610ffb57610ffa611467565b5b600360009054906101000a900460ff16600581111561101d5761101c611467565b5b0361105d576040517f08c379a000000000000000000000000000000000000000000000000000000000815260040161105490611812565b60405180910390fd5b60025434146110a1576040517f08c379a00000000000000000000000000000000000000000000000000000000081526004016110989061227e565b60405180910390fd5b600360029054906101000a900460ff16156110f1576040517f08c379a00000000000000000000000000000000000000000000000000000000081526004016110e8906122ea565b60405180910390fd5b6001600360026101000a81548160ff0219169083151502179055507f543ba50a5eec5e6178218e364b1d0f396157b3c8fa278522c2cb7fd99407d474333460405161113d92919061232b565b60405180910390a1565b600160009054906101000a900473ffffffffffffffffffffffffffffffffffffffff1673ffffffffffffffffffffffffffffffffffffffff163373ffffffffffffffffffffffffffffffffffffffff16146111d7576040517f08c379a00000000000000000000000000000000000000000000000000000000081526004016111ce906121ec565b60405180910390fd5b600460058111156111eb576111ea611467565b5b600360009054906101000a900460ff16600581111561120d5761120c611467565b5b0361124d576040517f08c379a0000000000000000000000000000000000000000000000000000000008152600401611244906117a6565b60405180910390fd5b6005808111156112605761125f611467565b5b600360009054906101000a900460ff16600581111561128257611281611467565b5b036112c2576040517f08c379a00000000000000000000000000000000000000000000000000000000081526004016112b990611812565b60405180910390fd5b600160058111156112d6576112d5611467565b5b600360009054906101000a900460ff1660058111156112f8576112f7611467565b5b14611338576040517f08c379a000000000000000000000000000000000000000000000000000000000815260040161132f906123a0565b60405180910390fd5b6001600360016101000a81548160ff02191690831515021790555061135d6002610241565b7fcd0e36d11310f0281fb5e0b0235c85d885204443df5c955dfbaffa017dfc8507600160405161138d91906113b2565b60405180910390a1565b60008115159050919050565b6113ac81611397565b82525050565b60006020820190506113c760008301846113a3565b92915050565b6000819050919050565b6113e0816113cd565b82525050565b60006020820190506113fb60008301846113d7565b92915050565b6000604051905090565b600080fd5b600080fd5b6006811061142257600080fd5b50565b60008135905061143481611415565b92915050565b6000602082840312156114505761144f61140b565b5b600061145e84828501611425565b91505092915050565b7f4e487b7100000000000000000000000000000000000000000000000000000000600052602160045260246000fd5b600681106114a7576114a6611467565b5b50565b60008190506114b882611496565b919050565b60006114c8826114aa565b9050919050565b6114d8816114bd565b82525050565b60006020820190506114f360008301846114cf565b92915050565b600073ffffffffffffffffffffffffffffffffffffffff82169050919050565b6000611524826114f9565b9050919050565b61153481611519565b82525050565b600060208201905061154f600083018461152b565b92915050565b61155e81611519565b811461156957600080fd5b50565b60008135905061157b81611555565b92915050565b600080fd5b600080fd5b6000601f19601f8301169050919050565b7f4e487b7100000000000000000000000000000000000000000000000000000000600052604160045260246000fd5b6115d48261158b565b810181811067ffffffffffffffff821117156115f3576115f261159c565b5b80604052505050565b6000611606611401565b905061161282826115cb565b919050565b600067ffffffffffffffff8211156116325761163161159c565b5b61163b8261158b565b9050602081019050919050565b82818337600083830152505050565b600061166a61166584611617565b6115fc565b90508281526020810184848401111561168657611685611586565b5b611691848285611648565b509392505050565b600082601f8301126116ae576116ad611581565b5b81356116be848260208601611657565b91505092915050565b600080604083850312156116de576116dd61140b565b5b60006116ec8582860161156c565b925050602083013567ffffffffffffffff81111561170d5761170c611410565b5b61171985828601611699565b9150509250929050565b600082825260208201905092915050565b7f4c61207472616e73616374696f6e206573742064656a612066696e616c69736560008201527f652e000000000000000000000000000000000000000000000000000000000000602082015250565b6000611790602283611723565b915061179b82611734565b604082019050919050565b600060208201905081810360008301526117bf81611783565b9050919050565b7f4c61207472616e73616374696f6e20612065746520616e6e756c65652e000000600082015250565b60006117fc601d83611723565b9150611807826117c6565b602082019050919050565b6000602082019050818103600083015261182b816117ef565b9050919050565b7f4c657320666f6e647320646f6976656e742065747265206465706f736573206160008201527f76616e74206465206d6f646966696572206c65207374617475742e0000000000602082015250565b600061188e603b83611723565b915061189982611832565b604082019050919050565b600060208201905081810360008301526118bd81611881565b9050919050565b7f5365756c206c652076656e6465757220706575742076616c696465722063657360008201527f206574617065732e000000000000000000000000000000000000000000000000602082015250565b6000611920602883611723565b915061192b826118c4565b604082019050919050565b6000602082019050818103600083015261194f81611913565b9050919050565b7f5365756c206c27616368657465757220706575742076616c696465722063657360008201527f206574617065732e000000000000000000000000000000000000000000000000602082015250565b60006119b2602883611723565b91506119bd82611956565b604082019050919050565b600060208201905081810360008301526119e1816119a5565b9050919050565b7f4e487b7100000000000000000000000000000000000000000000000000000000600052601160045260246000fd5b6000611a22826113cd565b9150611a2d836113cd565b9250828201905080821115611a4557611a446119e8565b5b92915050565b7f5472616e736974696f6e2064652073746174757420696e76616c6964652e0000600082015250565b6000611a81601e83611723565b9150611a8c82611a4b565b602082019050919050565b60006020820190508181036000830152611ab081611a74565b9050919050565b6000604082019050611acc60008301856114cf565b611ad960208301846114cf565b9392505050565b7f4c657320666f6e6473206e652070657576656e742065747265206c696265726560008201527f7320717565206c6f7273717565206c65206368617267656d656e74206120657460208201527f652076616c6964652e0000000000000000000000000000000000000000000000604082015250565b6000611b62604983611723565b9150611b6d82611ae0565b606082019050919050565b60006020820190508181036000830152611b9181611b55565b9050919050565b7f4c657320666f6e647320646f6976656e742065747265206465706f736573206160008201527f76616e74206c696265726174696f6e2e00000000000000000000000000000000602082015250565b6000611bf4603083611723565b9150611bff82611b98565b604082019050919050565b60006020820190508181036000830152611c2381611be7565b9050919050565b7f417563756e20666f6e647320646973706f6e69626c6520706f7572206c65207460008201527f72616e73666572742e0000000000000000000000000000000000000000000000602082015250565b6000611c86602983611723565b9150611c9182611c2a565b604082019050919050565b60006020820190508181036000830152611cb581611c79565b9050919050565b6000819050919050565b6000611ce1611cdc611cd7846114f9565b611cbc565b6114f9565b9050919050565b6000611cf382611cc6565b9050919050565b6000611d0582611ce8565b9050919050565b611d1581611cfa565b82525050565b6000604082019050611d306000830185611d0c565b611d3d60208301846113d7565b9392505050565b600081905092915050565b50565b6000611d5f600083611d44565b9150611d6a82611d4f565b600082019050919050565b6000611d8082611d52565b9150819050919050565b7f4c65207472616e736665727420646520666f6e64732061206563686f75652e00600082015250565b6000611dc0601f83611723565b9150611dcb82611d8a565b602082019050919050565b60006020820190508181036000830152611def81611db3565b9050919050565b7f416e6e756c6174696f6e206465206c61207472616e73616374696f6e20646f6960008201527f74206f626c696761746f6972656d656e7420657472652064656d616e6465652060208201527f70617220756e65207061727469652e0000000000000000000000000000000000604082015250565b6000611e78604f83611723565b9150611e8382611df6565b606082019050919050565b60006020820190508181036000830152611ea781611e6b565b9050919050565b7f416e6e756c6174696f6e206465206c61207472616e73616374696f6e20646f6960008201527f742065747265206d6f74697665652e0000000000000000000000000000000000602082015250565b6000611f0a602f83611723565b9150611f1582611eae565b604082019050919050565b60006020820190508181036000830152611f3981611efd565b9050919050565b7f4c61207472616e73616374696f6e206e6520706575742070617320657472652060008201527f616e6e756c656520736920616368657465757220612076616c696465206c652060208201527f6368617267656d656e742e000000000000000000000000000000000000000000604082015250565b6000611fc2604b83611723565b9150611fcd82611f40565b606082019050919050565b60006020820190508181036000830152611ff181611fb5565b9050919050565b6000612003826113cd565b915061200e836113cd565b925082820261201c816113cd565b91508282048414831517612033576120326119e8565b5b5092915050565b7f4e487b7100000000000000000000000000000000000000000000000000000000600052601260045260246000fd5b6000612074826113cd565b915061207f836113cd565b92508261208f5761208e61203a565b5b828204905092915050565b60006120a5826113cd565b91506120b0836113cd565b92508282039050818111156120c8576120c76119e8565b5b92915050565b600081519050919050565b60005b838110156120f75780820151818401526020810190506120dc565b60008484015250505050565b600061210e826120ce565b6121188185611723565b93506121288185602086016120d9565b6121318161158b565b840191505092915050565b60006060820190506121516000830186611d0c565b81810360208301526121638185612103565b905061217260408301846113d7565b949350505050565b7f5365756c20756e2061636865746575722070657574206566666563747565722060008201527f636574746520616374696f6e2e00000000000000000000000000000000000000602082015250565b60006121d6602d83611723565b91506121e18261217a565b604082019050919050565b60006020820190508181036000830152612205816121c9565b9050919050565b7f4c65206d6f6e74616e74206465706f736520646f69742065747265206567616c60008201527f2061206c612076616c657572206465206c61206d61726368616e646973652e00602082015250565b6000612268603f83611723565b91506122738261220c565b604082019050919050565b600060208201905081810360008301526122978161225b565b9050919050565b7f4c657320666f6e6473206f6e742064656a6120657465206465706f7365732e00600082015250565b60006122d4601f83611723565b91506122df8261229e565b602082019050919050565b60006020820190508181036000830152612303816122c7565b9050919050565b6000612315826114f9565b9050919050565b6123258161230a565b82525050565b6000604082019050612340600083018561231c565b61234d60208301846113d7565b9392505050565b7f4c652073746174757420646f6974206574726520274c6f6164696e67272e0000600082015250565b600061238a601e83611723565b915061239582612354565b602082019050919050565b600060208201905081810360008301526123b98161237d565b905091905056fea26469706673582212201358b4f23be608ccacefde904ae69f3bd1800a4191b4a837054604106aae0e6064736f6c634300081c0033a2646970667358221220466703cdf5d1a6a17e956ee7b6c8c6615be24b047b51387a436dbb3b287203b564736f6c634300081c0033",
  "linkReferences": {},
  "deployedLinkReferences": {}
}